{
  "contractName": "Scm",
  "abi": [
    {
      "constant": false,
      "inputs": [
        {
          "name": "pub_key",
          "type": "string"
        },
        {
          "name": "signup_hash",
          "type": "string"
        }
      ],
      "name": "set_signup",
      "outputs": [],
      "payable": false,
      "stateMutability": "nonpayable",
      "type": "function",
      "signature": "0x9a80f157"
    },
    {
      "constant": true,
      "inputs": [
        {
          "name": "pub_key",
          "type": "string"
        }
      ],
      "name": "get_signup",
      "outputs": [
        {
          "name": "",
          "type": "string"
        }
      ],
      "payable": false,
      "stateMutability": "view",
      "type": "function",
      "signature": "0x19cec54b"
    },
    {
      "constant": true,
      "inputs": [],
      "name": "get_usernames",
      "outputs": [
        {
          "name": "",
          "type": "string[]"
        }
      ],
      "payable": false,
      "stateMutability": "view",
      "type": "function",
      "signature": "0x0da1b264"
    }
  ],
  "bytecode": "0x60806040526020604051908101604052806040805190810160405280600a81526020017f6268617261746831323300000000000000000000000000000000000000000000815250815250600190600161005992919061006c565b5034801561006657600080fd5b506101e5565b8280548282559060005260206000209081019282156100bb579160200282015b828111156100ba5782518290805190602001906100aa9291906100cc565b509160200191906001019061008c565b5b5090506100c8919061014c565b5090565b828054600181600116156101000203166002900490600052602060002090601f016020900481019282601f1061010d57805160ff191683800117855561013b565b8280016001018555821561013b579182015b8281111561013a57825182559160200191906001019061011f565b5b5090506101489190610178565b5090565b61017591905b808211156101715760008181610168919061019d565b50600101610152565b5090565b90565b61019a91905b8082111561019657600081600090555060010161017e565b5090565b90565b50805460018160011615610100020316600290046000825580601f106101c357506101e2565b601f0160209004906000526020600020908101906101e19190610178565b5b50565b61078d806101f46000396000f3fe608060405260043610610057576000357c0100000000000000000000000000000000000000000000000000000000900463ffffffff1680630da1b2641461005c57806319cec54b146100875780639a80f157146100c4575b600080fd5b34801561006857600080fd5b506100716100ed565b60405161007e9190610628565b60405180910390f35b34801561009357600080fd5b506100ae60048036036100a991908101906104a1565b6101d6565b6040516100bb919061064a565b60405180910390f35b3480156100d057600080fd5b506100eb60048036036100e691908101906104e2565b6102e3565b005b60606001805480602002602001604051908101604052809291908181526020016000905b828210156101cd578382906000526020600020018054600181600116156101000203166002900480601f0160208091040260200160405190810160405280929190818152602001828054600181600116156101000203166002900480156101b95780601f1061018e576101008083540402835291602001916101b9565b820191906000526020600020905b81548152906001019060200180831161019c57829003601f168201915b505050505081526020019060010190610111565b50505050905090565b60606000826040518082805190602001908083835b60208310151561021057805182526020820191506020810190506020830392506101eb565b6001836020036101000a03801982511681845116808217855250505050505090500191505090815260200160405180910390208054600181600116156101000203166002900480601f0160208091040260200160405190810160405280929190818152602001828054600181600116156101000203166002900480156102d75780601f106102ac576101008083540402835291602001916102d7565b820191906000526020600020905b8154815290600101906020018083116102ba57829003601f168201915b50505050509050919050565b806000836040518082805190602001908083835b60208310151561031c57805182526020820191506020810190506020830392506102f7565b6001836020036101000a038019825116818451168082178552505050505050905001915050908152602001604051809103902090805190602001906103629291906103a6565b5060018290806001815401808255809150509060018203906000526020600020016000909192909190915090805190602001906103a09291906103a6565b50505050565b828054600181600116156101000203166002900490600052602060002090601f016020900481019282601f106103e757805160ff1916838001178555610415565b82800160010185558215610415579182015b828111156104145782518255916020019190600101906103f9565b5b5090506104229190610426565b5090565b61044891905b8082111561044457600081600090555060010161042c565b5090565b90565b600082601f830112151561045e57600080fd5b813561047161046c82610699565b61066c565b9150808252602083016020830185838301111561048d57600080fd5b610498838284610700565b50505092915050565b6000602082840312156104b357600080fd5b600082013567ffffffffffffffff8111156104cd57600080fd5b6104d98482850161044b565b91505092915050565b600080604083850312156104f557600080fd5b600083013567ffffffffffffffff81111561050f57600080fd5b61051b8582860161044b565b925050602083013567ffffffffffffffff81111561053857600080fd5b6105448582860161044b565b9150509250929050565b6000610559826106d2565b80845260208401935083602082028501610572856106c5565b60005b848110156105ab57838303885261058d8383516105f2565b9250610598826106f3565b9150602088019750600181019050610575565b508196508694505050505092915050565b60006105c7826106e8565b8084526105db81602086016020860161070f565b6105e481610742565b602085010191505092915050565b60006105fd826106dd565b80845261061181602086016020860161070f565b61061a81610742565b602085010191505092915050565b60006020820190508181036000830152610642818461054e565b905092915050565b6000602082019050818103600083015261066481846105bc565b905092915050565b6000604051905081810181811067ffffffffffffffff8211171561068f57600080fd5b8060405250919050565b600067ffffffffffffffff8211156106b057600080fd5b601f19601f8301169050602081019050919050565b6000602082019050919050565b600081519050919050565b600081519050919050565b600081519050919050565b6000602082019050919050565b82818337600083830152505050565b60005b8381101561072d578082015181840152602081019050610712565b8381111561073c576000848401525b50505050565b6000601f19601f830116905091905056fea265627a7a723058206639cd9579420fb1f172c69ea17f72e606d8b4934de16f550ab2a613273097796c6578706572696d656e74616cf50037",
  "source": "pragma solidity ^0.5.0;\npragma experimental ABIEncoderV2;\n\ncontract Scm {\n  mapping(string => string) signup;\n  string[] usernames_signup = [\"bharath123\"];\n  \n\n  function set_signup(string memory pub_key, string memory signup_hash) public {\n    signup[pub_key] = signup_hash;\n    usernames_signup.push(pub_key);\n  }\n\n  function get_signup(string memory pub_key) public view returns (string memory) {\n    return signup[pub_key];\n  }\n  \n  function get_usernames() public view returns (string[] memory) {\n    return usernames_signup;\n  }\n  \n  /*function add_signup_usernames(string memory pub_key) public {\n    usernames_signup.push(pub_key);\n  }*/\n  \n}",
  "sourcePath": "/home/nikhil/Desktop/scm_project/src/contracts/scm.sol",
  "compiler": {
    "name": "solc",
    "version": "0.5.0+commit.1d4f565a.Emscripten.clang"
  },
  "schemaVersion": "3.0.2",
  "updatedAt": "2021-01-07T08:40:39.606Z",
  "devdoc": {
    "methods": {}
  },
  "userdoc": {
    "methods": {}
  }
}